:020000040800F2
:1000000000500020C1110008051200080512000868
:100010000512000805120008051200080000000083
:1000200000000000000000000000000005120008B1
:100030000512000800000000051200080512000863
:100040000512000805120008051200080512000834
:100050000512000805120008051200080512000824
:100060000512000805120008051200080512000814
:100070000512000805120008051200080512000804
:1000800005120008051200080512000805120008F4
:1000900005120008051200080512000805120008E4
:1000A00005120008051200080512000805120008D4
:1000B00005120008051200080512000805120008C4
:1000C00005120008051200080512000805120008B4
:1000D00005120008051200080512000805120008A4
:1000E00005120008051200080512000800000000B3
:1000F0000000000000000000000000000000000000
:0C01000000000000000000005FF808F1A3
:10010C002E13000800000020040000200400002032
:10011C000400002080B500AF00F004F800F01CF8DB
:10012C00FEE7000080B582B000AF0121042000F092
:10013C00FBFD4023BB801023FB710323BB713B1DD4
:10014C001946044800F0AEF800F010F800BF08376C
:10015C00BD4680BD0008014080B500AF402102487B
:10016C0000F0C7F900BF80BD0008014080B500AFAA
:10017C004021024800F0AFF900BF80BD00080140EB
:10018C0080B500AF4021074800F080F90346C3F169
:10019C000103DBB21A464021024800F0B8F900BF57
:1001AC0080BD00BF0008014080B582B000AF786010
:1001BC007B682F4A934208D10121042000F0F0FD06
:1001CC000021042000F0ECFD4EE07B68294A9342AC
:1001DC0008D10121082000F0E3FD0021082000F0E7
:1001EC00DFFD41E07B68244A934208D101211020B5
:1001FC0000F0D6FD0021102000F0D2FD34E07B6829
:10020C001E4A934208D10121202000F0C9FD002193
:10021C00202000F0C5FD27E07B68194A934208D1E5
:10022C000121402000F0BCFD0021402000F0B8FD71
:10023C001AE07B68134A934208D10121802000F018
:10024C00AFFD0021802000F0ABFD0DE07B680E4A75
:10025C00934209D101214FF4807000F0A1FD0021DF
:10026C004FF4807000F09CFD00BF0837BD4680BD88
:10027C0000080140000C0140001001400014014036
:10028C0000180140001C01400020014080B500AF67
:10029C000121012000F084FD0021012000F080FDEF
:1002AC0000BF80BD80B489B000AF78603960002396
:1002BC00FB6100233B610023BB610023FB60002337
:1002CC007B610023BB603B68DB7803F00F03FB61B1
:1002DC003B68DB7803F01003002B05D03B689B7860
:1002EC001A46FB691343FB613B681B88DBB2002B8E
:1002FC0044D07B681B687B610023BB6138E0012222
:10030C00BB6902FA03F3FB603B681B881A46FB6867
:10031C0013403B613A69FB689A4226D1BB699B004A
:10032C00FB600F22FB6802FA03F3BB60BB68DB4384
:10033C007A6913407B61FA69FB6802FA03F37A6904
:10034C0013437B613B68DB78282B05D10122BB6909
:10035C009A407B685A6108E03B68DB78482B04D1F3
:10036C000122BB699A407B681A61BB690133BB618E
:10037C00BB69072BC3D97B687A691A603B681B88F9
:10038C00FF2B46D97B685B687B610023BB613AE03D
:10039C00BB690833012202FA03F3FB603B681B883C
:1003AC001A46FB6813403B613A69FB689A4227D1B5
:1003BC00BB699B00FB600F22FB6802FA03F3BB6076
:1003CC00BB68DB437A6913407B61FA69FB6802FA0C
:1003DC0003F37A6913437B613B68DB78282B05D1E7
:1003EC00BB69083301229A407B685A613B68DB7811
:1003FC00482B05D1BB69083301229A407B681A61EE
:10040C00BB690133BB61BB69072BC1D97B687A69B6
:10041C005A6000BF2437BD4680BC704780B483B09F
:10042C0000AF78607B684FF6FF721A807B680222FF
:10043C009A707B680422DA7000BF0C37BD4680BC12
:10044C00704780B485B000AF78600B467B8000238A
:10045C00FB737B689A687B881340002B02D00123C6
:10046C00FB7301E00023FB73FB7B18461437BD467E
:10047C0080BC704780B483B000AF78607B689B68A9
:10048C009BB218460C37BD4680BC704780B485B013
:10049C0000AF78600B467B800023FB737B68DA68C7
:1004AC007B881340002B02D00123FB7301E0002357
:1004BC00FB73FB7B18461437BD4680BC704780B479
:1004CC0083B000AF78607B68DB689BB218460C3752
:1004DC00BD4680BC704780B483B000AF78600B46DB
:1004EC007B807A887B681A6100BF0C37BD4680BC64
:1004FC00704780B483B000AF78600B467B807A88FD
:10050C007B685A6100BF0C37BD4680BC704780B415
:10051C0083B000AF78600B467B8013467B707B7892
:10052C00002B03D07A887B681A6102E07A887B689A
:10053C005A6100BF0C37BD4680BC704780B483B095
:10054C0000AF78600B467B807A887B68DA6000BFEE
:10055C000C37BD4680BC704780B485B000AF786066
:10056C000B467B804FF48033FB607B88FA68134327
:10057C00FB607B68FA689A617A887B689A617B6811
:10058C00FA689A617B689B69FB607B689B69FB607E
:10059C0000BF1437BD4680BC704780B485B000AF37
:1005AC0003460A46FB711346BB710023FB600C4BE0
:1005BC001B68FB60FA684FF680731340FB60FB7995
:1005CC001B01FA681343FB60BB79FA681343FB60A9
:1005DC00034AFB68136000BF1437BD4680BC7047EC
:1005EC000000014080B483B000AF0346FB71044AA5
:1005FC00FB79136000BF0C37BD4680BC704700BF51
:10060C001C00204280B487B000AF78600B46FB70B2
:10061C0000233B610023FB6000237B610023BB6054
:10062C007B68002B03DA2E4BDB697B6102E02C4BE1
:10063C005B687B617B681B0C03F00F03BB607B6802
:10064C009BB23B617B6803F44013B3F5401F0AD1A6
:10065C007B6923F070637B61214B5B68204A23F03C
:10066C007063536021E07B6803F48013002B0ED081
:10067C000322BB6802FA03F3FB60FB68DB437A6975
:10068C0013407B617B6943F070637B610DE07B6899
:10069C005B0D1B013A6902FA03F3DB437A691340E1
:1006AC007B617B6943F070637B61FB78002B08D026
:1006BC007B685B0D1B013A6902FA03F37A691343F9
:1006CC007B617B68002B03DA054A7B69D36102E00E
:1006DC00034A7B69536000BF1C37BD4680BC704722
:1006EC000000014080B485B000AF03460A46FB71A0
:1006FC001346BB710023FB60BB7903F003039B0023
:10070C000F2202FA03F3FB60154ABB799B08DBB29C
:10071C00023352F82320FB68DB431148B97989086E
:10072C00C9B21A408B1C40F823200D4ABB799B0898
:10073C00DBB2023352F82320F979BB7903F00303BF
:10074C009B0001FA03F30648B9798908C9B21A4328
:10075C008B1C40F8232000BF1437BD4680BC70476B
:10076C000000014080B483B000AF7860034A7B681E
:10077C00136000BF0C37BD4680BC7047DC002042C4
:10078C0080B400AF134B1B68124A43F00103136093
:10079C00104B5A680F49104B13404B600D4B1B68A4
:1007AC000C4A23F0847323F480331360094B1B68C9
:1007BC00084A23F480231360064B5B68054A23F434
:1007CC00FE035360034B4FF41F029A6000BFBD46FB
:1007DC0080BC7047001002400000FFF880B483B06A
:1007EC0000AF7860134B1B68124A23F480331360FC
:1007FC00104B1B680F4A23F4802313607B68B3F5FE
:10080C00803F04D07B68B3F5802F07D00DE0094BF7
:10081C001B68084A43F48033136006E0054B1B68E1
:10082C00044A43F4A023136000BF00BF0C37BD463D
:10083C0080BC70470010024080B582B000AF00232E
:10084C003B600023FB710023BB71312000F014FBD3
:10085C000346BB713B6801333B603B68B3F5A06F4B
:10086C0002D0BB79002BF0D0312000F005FB034601
:10087C00002B02D00123FB7101E00023FB71FB79FB
:10088C0018460837BD4680BD80B485B000AF03461E
:10089C00FB710023FB600A4B1B68FB60FB6823F0B9
:1008AC00F803FB60FB79DB00FA681343FB60044A36
:1008BC00FB68136000BF1437BD4680BC704700BF97
:1008CC000010024080B483B000AF0346FB71044AB1
:1008DC00FB79136000BF0C37BD4680BC704700BF6E
:1008EC000000424280B485B000AF786039600023CC
:1008FC00FB600A4B5B68FB60FB6823F47C13FB60BA
:10090C007A683B681343FA681343FB60034AFB683D
:10091C00536000BF1437BD4680BC704700100240C6
:10092C0080B483B000AF0346FB71044AFB791360BB
:10093C0000BF0C37BD4680BC704700BF6000424210
:10094C0080B485B000AF78600023FB60094B5B6816
:10095C00FB60FB6823F00303FB60FA687B681343BE
:10096C00FB60044AFB68536000BF1437BD4680BC73
:10097C00704700BF0010024080B400AF044B5B68AE
:10098C00DBB203F00C03DBB21846BD4680BC7047EB
:10099C000010024080B485B000AF78600023FB608B
:1009AC00094B5B68FB60FB6823F0F003FB60FA68A3
:1009BC007B681343FB60044AFB68536000BF143729
:1009CC00BD4680BC704700BF0010024080B485B0AB
:1009DC0000AF78600023FB60094B5B68FB60FB6831
:1009EC0023F4E063FB60FA687B681343FB60044A02
:1009FC00FB68536000BF1437BD4680BC704700BF16
:100A0C000010024080B485B000AF78600023FB601A
:100A1C00094B5B68FB60FB6823F46053FB607B68ED
:100A2C00DB00FA681343FB60034AFB68536000BFAA
:100A3C001437BD4680BC70470010024080B483B0B0
:100A4C0000AF03460A46FB711346BB71BB79002B02
:100A5C0008D00C4B1B78DAB20A49FB791343DBB292
:100A6C000B7009E0074B1B78DAB2FB79DB43DBB286
:100A7C0004491340DBB20B7000BF0C37BD4680BC81
:100A8C00704700BF0910024080B483B000AF78609B
:100A9C00034A7B68136000BF0C37BD4680BC7047AF
:100AAC00D800424280B485B000AF78600023FB6070
:100ABC00094B5B68FB60FB6823F44043FB60FA68FE
:100ACC007B681343FB60044AFB68536000BF143718
:100ADC00BD4680BC704700BF0010024080B483B09C
:100AEC0000AF0346FB710C4B00221A700A4B00221C
:100AFC001A70FB79012B02D0042B04D007E0064BB3
:100B0C0001221A7003E0044B05221A7000BF00BFCB
:100B1C000C37BD4680BC70472010024080B483B0B7
:100B2C0000AF0346FB71044AFB79136000BF0C371E
:100B3C00BD4680BC704700BF8004424280B483B085
:100B4C0000AF7860054B1A6A04497B6813430B624B
:100B5C0000BF0C37BD4680BC704700BF0010024080
:100B6C0080B483B000AF0346FB71044AFB79136079
:100B7C0000BF0C37BD4680BC704700BF3C044242EE
:100B8C0080B487B000AF786000237B6100233B61A9
:100B9C000023FB600023BB604F4B5B6803F00C032E
:100BAC007B617B69082B11D07B69082B3AD87B6958
:100BBC00002B03D07B69042B04D033E07B68474ABD
:100BCC001A6033E07B68454A1A602FE0424B5B6841
:100BDC0003F470133B61404B5B6803F48033FB60A0
:100BEC003B699B0C02333B61FB68002B06D13B69D4
:100BFC003B4A03FB02F27B681A6017E0364B5B68DA
:100C0C0003F40033002B06D03B69354A03FB02F298
:100C1C007B681A600AE03B69304A03FB02F27B688E
:100C2C001A6003E07B682D4A1A6000BF2A4B5B6890
:100C3C0003F0F0037B617B691B097B61294A7B69AB
:100C4C0013441B78DBB2BB607B681A68BB68DA4064
:100C5C007B685A60204B5B6803F4E0637B617B69C3
:100C6C001B0A7B611F4A7B6913441B78DBB2BB6098
:100C7C007B685A68BB68DA407B689A60164B5B6885
:100C8C0003F460537B617B69DB0A7B61154A7B69EA
:100C9C0013441B78DBB2BB607B685A68BB68DA40D4
:100CAC007B68DA600C4B5B6803F440437B617B69C7
:100CBC009B0B7B610C4A7B6913441B78DBB2BB60DA
:100CCC007B68DA68BB68B2FBF3F27B681A6100BF21
:100CDC001C37BD4680BC70470010024000127A00E1
:100CEC0000093D00081200081812000880B483B0F7
:100CFC0000AF78600B46FB70FB78002B06D0094BDD
:100D0C005A6908497B6813434B6106E0054B5A69E5
:100D1C007B68DB43034913404B6100BF0C37BD4676
:100D2C0080BC70470010024080B483B000AF786084
:100D3C000B46FB70FB78002B06D0094B9A690849CF
:100D4C007B6813438B6106E0054B9A697B68DB4338
:100D5C00034913408B6100BF0C37BD4680BC704704
:100D6C000010024080B483B000AF78600B46FB707B
:100D7C00FB78002B06D0094BDA6908497B681343D2
:100D8C00CB6106E0054BDA697B68DB430349134012
:100D9C00CB6100BF0C37BD4680BC704700100240D1
:100DAC0080B483B000AF78600B46FB70FB78002BEF
:100DBC0006D0094BDA6808497B681343CB6006E020
:100DCC00054BDA687B68DB4303491340CB6000BFFB
:100DDC000C37BD4680BC70470010024080B483B015
:100DEC0000AF78600B46FB70FB78002B06D0094BEC
:100DFC001A6908497B6813430B6106E0054B1A69B5
:100E0C007B68DB43034913400B6100BF0C37BD46C5
:100E1C0080BC70470010024080B483B000AF034622
:100E2C00FB71044AFB79136000BF0C37BD4680BCD4
:100E3C00704700BF4004424280B483B000AF034609
:100E4C00FB71044AFB79136000BF0C37BD4680BCB4
:100E5C00704700BF4C00424280B483B000AF0346E1
:100E6C00FB71044AFB79137000BF0C37BD4680BC84
:100E7C00704700BF0710024080B487B000AF034634
:100E8C00FB710023FB6000237B610023FB74FB7967
:100E9C005B09DBB2FB60FB68012B03D1124B1B68B7
:100EAC007B6109E0FB68022B03D10F4B1B6A7B6152
:100EBC0002E00D4B5B6A7B61FB7903F01F03FB6067
:100ECC007A69FB6822FA03F303F00103002B02D0CA
:100EDC000123FB7401E00023FB74FB7C18461C37D8
:100EEC00BD4680BC704700BF0010024080B400AF0C
:100EFC00044B5B6A034A43F08073536200BFBD46E8
:100F0C0080BC70470010024080B485B000AF03462F
:100F1C00FB710023FB73084B9A68FB791340002B81
:100F2C0002D00123FB7301E00023FB73FB7B18460B
:100F3C001437BD4680BC70470010024080B483B0AB
:100F4C0000AF0346FB71044AFB79137000BF0C37EA
:100F5C00BD4680BC704700BF0A10024080B500AF90
:100F6C00154B1B68144A43F001031360124B5A686B
:100F7C001149124B13404B600F4B1B680E4A23F068
:100F8C00847323F4803313600B4B1B680A4A23F4DD
:100F9C0080231360084B5B68074A23F4FE035360FD
:100FAC00054B4FF41F029A6000F07EF8044B4FF093
:100FBC0000629A6000BF80BD001002400000FFF884
:100FCC0000ED00E080B485B000AF0023FB6000238F
:100FDC00BB6000237B602F4B5B6803F00C03FB6052
:100FEC00FB68082B11D0FB68082B3AD8FB68002B48
:100FFC0003D0FB68042B04D033E0274B274A1A603C
:10100C0033E0254B254A1A602FE0224B5B6803F432
:10101C007013BB601F4B5B6803F480337B60BB6851
:10102C009B0C0233BB607B68002B06D1BB681C4A4F
:10103C0002FB03F3184A136017E0164B5B6803F4CA
:10104C000033002B06D0BB68154A02FB03F3124A8F
:10105C0013600AE0BB68114A02FB03F30E4A1360EB
:10106C0003E00D4B0D4A1A6000BF0A4B5B681B096D
:10107C0003F00F030B4AD35CDBB2FB60064B1A6820
:10108C00FB6822FA03F3044A136000BF1437BD4611
:10109C0080BC7047001002400000002000127A0053
:1010AC0000093D001C12000880B500AF00F002F8EA
:1010BC0000BF80BD80B483B000AF00237B600023F1
:1010CC003B603A4B1B68394A43F480331360374B0F
:1010DC001B6803F400333B607B6801337B603B6827
:1010EC00002B03D17B68B3F5A06FF0D12F4B1B689D
:1010FC0003F40033002B02D001233B6001E00023FA
:10110C003B603B68012B4BD1294B1B68284A43F0B1
:10111C0010031360264B1B68254A23F0030313604E
:10112C00234B1B68224A43F0020313601F4B1F4AD8
:10113C005B6853601D4B1D4A5B6853601B4B5B68BF
:10114C001A4A43F480635360184B5B68174A23F4C4
:10115C007C135360154B5B68144A43F4E8135360DB
:10116C00124B1B68114A43F08073136000BF0F4B86
:10117C001B6803F00073002BF9D00C4B5B680B4A17
:10118C0023F003035360094B5B68084A43F00203E6
:10119C00536000BF054B5B6803F00C03082BF9D1BF
:1011AC0000BF0C37BD4680BC704700BF001002402A
:1011BC0000200240002103E00A4B5B5843500431ED
:1011CC0009480A4B42189A42F6D3094A02E0002316
:1011DC0042F8043B074B9A42F9D3FFF7BFFEFEF7E8
:1011EC0099FF70472E130008000000200400002017
:1011FC000400002004000020FEE7000000000000B6
:10120C00010203040102030406070809020406088C
:10121C00000000000000000001020304060708099A
:04132E0000A24A04CB
:04000005080011C11D
:00000001FF
